S01700004763634170706C69636174696F6E372E7372656355
S11300000C9434000C9487010C943E000C943E0034
S11300100C943E000C943E000C943E000C943E0064
S11300200C943E000C943E000C943E000C943E0054
S11300300C943E000C943E000C943E000C943E0044
S11300400C943E000C943E000C943E000C943E0034
S11300500C943E000C943E000C943E000C943E0024
S11300600C943E000C943E0011241FBECFEFD8E048
S1130070DEBFCDBF0E946F010C94AB010C94000055
S113008084B18E6084B9089520E030E012C0E8E8BD
S1130090F0E0808191810196918380834FEF86E720
S11300A091E0415080409040E1F700C000002F5F94
S11300B03F4F2F3F31055CF3109289001092880066
S11300C085B18D7F85B920E030E012C0EAE8F0E028
S11300D0808191810196918380834FEF86E791E03F
S11300E0415080409040E1F700C000002F5F3F4F37
S11300F02F3F31055CF310928B0010928A0085B17A
S11301008B7F85B920E030E010C0E3EBF0E0808124
S11301108F5F80834FEF86E791E0415080409040AD
S1130120E1F700C000002F5F3F4F2F3F31056CF314
S11301301092B30085B1877F85B9089520E030E03F
S113014010C0E3EBF0E080818F5F80834FEF86E7A0
S113015091E0415080409040E1F700C000002F5FE3
S11301603F4F2F3F31056CF31092B30085B1877F69
S113017085B920E030E012C0EAE8F0E080819181A6
S11301800196918380834FEF86E791E04150804050
S11301909040E1F700C000002F5F3F4F2F3F310533
S11301A05CF310928B0010928A0085B18B7F85B925
S11301B020E030E012C0E8E8F0E08081918101960F
S11301C0918380834FEF86E791E0415080409040D7
S11301D0E1F700C000002F5F3F4F2F3F31055CF374
S11301E0109289001092880085B18D7F85B9089599
S11301F08AB184708AB98BB184608BB90895ECE7B5
S1130200F0E0808180648083EAE7F0E080818368A5
S113021080830895A0E8B0E08C9181688C93E1E834
S1130220F0E08081896080838C9181628C938081ED
S113023089608083E0EBF0E0808181688083E1EB7A
S1130240F0E08081856080830895EAE7F0E08081B2
S11302508064808380917A0086FDFCCF8091780051
S1130260909179000895CF93DF93109289001092B2
S1130270880010928B0010928A001092B30080E0E4
S113028090E01EC0C8E8D0E02FEF30E03983288327
S1130290AAE8B0E011963C932E93E3EBF0E02FEF45
S11302A020832FEF39E648E1215030404040E1F708
S11302B000C00000288139812D913C912081019654
S11302C082309105FCF2DF91CF910895E9E6F0E0E8
S11302D08081816080838DB381608DBB08950E948D
S11302E0F8000E9440000E94FF000E940A017894D6
S11302F00E9466010E9444000E94250181309240C0
S113030018F00E949E00F6CF0E949E00F3CF1F9229
S11303100F920FB60F9211242F933F934F935F9335
S11303206F937F938F939F93AF93BF93EF93FF93B9
S11303300E943301FF91EF91BF91AF919F918F91F3
S11303407F916F915F914F913F912F910F900FBECD
S10D03500F901F901895F894FFCF4A
S9030000FC
